:020000040800F2
:1000000038050020310200083F02000841020008C4
:1000100043020008450200084702000800000000F3
:10002000000000000000000000000000490200087D
:100030004B020008000000004D0200084F020008BB
:100040005102000851020008510200085102000844
:100050005102000851020008510200085102000834
:100060005102000851020008510200085102000824
:100070005102000851020008510200085102000814
:100080005102000851020008510200085102000804
:1000900051020008510200085102000851020008F4
:1000A00051020008510200085102000851020008E4
:1000B00051020008510200085102000851020008D4
:1000C00051020008510200085102000851020008C4
:1000D00051020008690C0008510200085102000892
:1000E00051020008510200085102000851020008A4
:1000F0005102000851020008510200085102000894
:100100005102000851020008510200085102000883
:100110005102000851020008510200085102000873
:100120005102000851020008510200085102000863
:100130005102000851020008510200085102000853
:100140005102000851020008510200085102000843
:100150005102000851020008510200085102000833
:100160005102000851020008510200085102000823
:100170005102000851020008510200085102000813
:10018000510200085102000800F002F800F041F8A6
:100190000AA090E8000C82448344AAF10107DA45E2
:1001A00001D100F036F8AFF2090EBAE80F0013F0F3
:1001B000010F18BFFB1A43F001031847B40D0000EC
:1001C000D40D0000103A24BF78C878C1FAD852077D
:1001D00024BF30C830C144BF04680C6070470000C1
:1001E0000023002400250026103A28BF78C1FBD840
:1001F000520728BF30C148BF0B607047642900F028
:100200007B80002070471FB500F0ACFE1FBD10B50D
:1002100010BD00F039F91146FFF7F5FF00F0D0FDF1
:1002200000F057F903B4FFF7F2FF03BC00F05CFDE8
:100230000B48016841F4700101600A480047FEE77D
:10024000FEE7FEE7FEE7FEE7FEE7FEE7FEE7FEE786
:10025000FEE7000004480549034A054B70470000CB
:1002600088ED00E0890100083801002038050020F1
:1002700038010020704700000FB4044910B503AAEC
:10028000029800F0D3F810BC5DF814FB04000020C5
:100290002DE9F0410E460446002020622046E16828
:1002A000884730B3252805D0D4E901219047206A3A
:1002B000401CF2E7E168204600278847050018D077
:1002C000A5F14100192802D820354FF400673246C5
:1002D000294620462760FFF791FF40B1012804D04E
:1002E000F61D26F007060836D8E7361DD6E728465D
:1002F000DAE7206ABDE8F0812DE9F04106460024E6
:1003000010687529314616A510D0AFF3008000287B
:1003100002DA404213A507E031688A0701D512A529
:1003200002E0490704D511A5012401E0AFF30080E4
:1003300000210A2206F1240709E0B0FBF2FCB0FB21
:10034000F2F302FB1C00303078541846491C002898
:10035000F3D123462A463046BDE8F04100F00CB800
:10036000000000002D0000002B0000002000000015
:1003700070477047704770472DE9F0470D46994622
:100380009246044600F124080168880604D5E06915
:1003900021F01001216000E00120A84201DD471B8F
:1003A00000E00027A1697A1902EB0900081AA06190
:1003B0002078C00602D42046AFF30080002608E073
:1003C000D4E901211AF806009047206A401C761CE7
:1003D00020624E45F4DB2078C0060AD52046AFF3F4
:1003E000008006E0D4E9012130209047206A401CBB
:1003F0002062381EA7F10107F4DC07E0D4E90121EF
:1004000018F805009047206A401C2062281EA5F1BC
:100410000105F3DC2046AFF300802078000602D50A
:100420000220BDE8F0870120FBE70000074B70B514
:100430000D467B4400F011F80446284600F020F8F1
:1004400010B14FF0FF3070BD204670BD6F09000045
:1004500001694A1C02610878704700B58FB0CDE988
:1004600001310021059105497944CDE90310114678
:100470006846FFF70DFF0FB000BD0000E5FFFFFF6E
:10048000007B00F080007047754600F029F8AE460A
:1004900005006946534620F00700854618B020B590
:1004A000FFF7D8FEBDE820404FF000064FF00007F0
:1004B0004FF000084FF0000B21F00701AC46ACE80C
:1004C000C009ACE8C009ACE8C009ACE8C0098D4679
:1004D00070470446AFF300802046FFF7A3FE0000FC
:1004E00000487047D40000201CB50A48006840F05E
:1004F0002000084908600220032100230122CDE9E1
:100500000010C101044800F0F3F80020034908601E
:100510001CBD00003038024000140240A08242425C
:1005200010B504460120164908602146642000F0F9
:100530008DFB00201349C1F8A0022146642000F081
:1005400085FB01200E4908602146642000F07EFBF7
:1005500000200C49C1F8A0022146642000F076FB7F
:100560000120074908602146642000F06FFB00204D
:100570000449C1F8A0022146642000F067FB10BDC9
:10058000A08242420080424210B504460120084940
:10059000086021464FF4967000F058FB0020054992
:1005A000C1F8A00221464FF4967000F04FFB10BD39
:1005B000A0824242008042421CB51248006840F0CE
:1005C0002000104908600846006840F010000860EC
:1005D0000120032100230246CDE900104FF4FF4122
:1005E000094800F085F80120032100230246CDE9E7
:1005F00000104FF46041054800F07AF801200449EA
:1006000008601CBD30380240001402400010024057
:10061000A88242422DE9F04104460A2094FBF0F002
:1006200000EB8000A4EB4005642094FBF0F000EBAD
:10063000C00101EB0010A4EB80000A2190FBF1F651
:10064000642094FBF0F70120174908600020174947
:10065000C1F8B802144908310860284600F0A6F92C
:10066000052000F065FB00200F4908600120091DEE
:10067000086000200D49C1F8BC02304600F096F930
:10068000052000F055FB002007490860091D08609F
:100690000120091D0860384600F088F9052000F0A7
:1006A00047FBBDE8F0810000B40242420000424234
:1006B00030B5CC1000F1200353F824304C07E50E80
:1006C0000F24AC40A343CD1000F1200444F82530A2
:1006D000CC1000F1200353F824304C07E40E02FA4A
:1006E00004F42343CD1000F1200444F8253030BD3C
:1006F0002DE9F0470C46DDE90867002100258C460E
:1007000000BF60E04FF0010808FA01F504EA050CAB
:10071000AC4557D1D0F800804FEA410A4FF00309A9
:1007200009FA0AF928EA0908C0F80080D0F8008020
:100730004FEA410902FA09F948EA0908C0F80080BD
:10074000012A01D0022A27D1D0F808804FEA410AB5
:100750004FF0030909FA0AF928EA0908C0F80880E5
:10076000D0F808804FEA410906FA09F948EA090871
:10077000C0F80880D0F804904FF0010808FA01F89A
:1007800029EA0809C0F80490D0F8048003FA01F9B6
:1007900048EA0908C0F80480D0F80C804FEA410A02
:1007A0004FF0030909FA0AF928EA0908C0F80C8091
:1007B000D0F80C804FEA410907FA09F948EA09081C
:1007C000C0F80C80491C10299CD3BDE8F0870000BC
:1007D0001CB50848006840F0100006490860012078
:1007E00000210B460A46CDE9001010210248FFF710
:1007F0007FFF1CBD30380240001002402DE9F0415F
:1008000006ACF0CC012806D14FF0000CDFF8E880F0
:10081000C8F8B8C205E04FF0010CDFF8DC80C8F87A
:10082000B8C2012906D14FF0000CDFF8CC80C8F81F
:10083000B4C205E04FF0010CDFF8BC80C8F8B4C2C8
:10084000012A06D14FF0000CDFF8AC80C8F8B0C226
:1008500005E04FF0010CDFF8A080C8F8B0C2012B12
:1008600006D14FF0000CDFF89080C8F8ACC205E06C
:100870004FF0010CDFF88080C8F8ACC2012C06D123
:100880004FF0000CDFF87080C8F8A8C205E04FF008
:10089000010CDFF86480C8F8A8C2012D06D14FF022
:1008A000000CDFF85480C8F8A4C205E04FF0010C3A
:1008B000DFF84480C8F8A4C2012E06D14FF0000C26
:1008C000DFF83480C8F8A0C205E04FF0010CDFF873
:1008D0002880C8F8A0C2012F06D14FF0000CDFF825
:1008E0001880C8F89CC205E04FF0010CDFF80880C2
:1008F000C8F89CC2BDE8F081008042422DE9F04179
:100900000746884614461D46284600F033F8C5F1D0
:10091000040007FA00F60F20284100EA0800064309
:1009200006F00F06E21704EBD2625211920002F1B8
:10093000E022D2F800212146E31704EBD3635B11D8
:10094000A4EB431C012303FA0CF31A432046E317DC
:1009500004EBD3635B119B0003F1E023C3F8002198
:100960000348005D40EA061001490855BDE8F081E2
:1009700000E400E00146072323EA01021202054BCE
:1009800018684FF6FF031840034B18431043014B00
:10099000186070470CED00E00000FA054A0A5202A8
:1009A0000243014B1A60704708ED00E01FB5044692
:1009B0000A2C0CDB00200121009101910B4602461C
:1009C000CDE9021001460120FFF718FF1FBD0A2CD8
:1009D0007ED2DFE804F005111C28343F4C596571C4
:1009E000002001220092CDE9012013461146039018
:1009F0001046FFF703FF6BE000200090019002908B
:100A00000346012211460390FFF7F8FE60E0002044
:100A10000121CDE900100B460246CDE9021008463F
:100A2000FFF7ECFE54E000200090019002900123BB
:100A30001A46194603901846FFF7E0FE48E00020EA
:100A40000121CDE9000103460A46CDE90210FFF776
:100A5000D5FE3DE000200121CDE900010B460A460C
:100A6000CDE9021001460120FFF7C8FE30E000206A
:100A70000121009101910B460A46CDE90210014681
:100A80000120FFF7BBFE23E00020009001900290C0
:100A900003460122114603901046FFF7AFFE17E010
:100AA00000200121009101910B460A46CDE9021078
:100AB0000846FFF7A3FE0BE000200121CDE900016D
:100AC0000B460A46CDE902100846FFF797FE00BF25
:100AD00000BF00BF7AE70000F0B504460D46164699
:100AE0001F461448006840F00100124908600020C9
:100AF0001049083108600F4800680F4908400D4947
:100B000008600E48091D0860081F006820F4802056
:100B1000091F0860002007490C3108603B46324637
:100B20002946204600F00CF800210846FFF736FF62
:100B3000F0BD000000380240FFFFF6FE1030002438
:100B4000F0B504460D46002100203D4E366846F4BF
:100B500080363B4F3E6001E04E1CB1B2384E3668E5
:100B600006F400361EB941F6FF76B142F4DB41F6D9
:100B7000FF76B14201D1012060E0314E4036366847
:100B800046F080562E4F40373E602E4E366846F473
:100B900040462C4F3E602A4E0836366846F41446CE
:100BA000274F08373E60264E366826F08076244F61
:100BB0003E6045EA84160127C7EB520746EA07461E
:100BC00046EA036646F480061D4F3F1D3E603E1F09
:100BD000366846F080763F1F3E6000BF184E36688C
:100BE00006F00076002EF9D0174E366846F480766F
:100BF000154F3E603E46366846F400763E603E46FF
:100C0000366846F480663E603E46366846F0050625
:100C10003E600B4E0836366826F00306084F08374C
:100C20003E603E46366846F002063E6000BF044E17
:100C30000836366806F00C06082EF8D1F0BD000024
:100C40000038024000700040003C024070B504468D
:100C50000D460F2094FBF0F403E02846FFF7DAFC82
:100C6000641E002CF9DC70BD1C49098801F02001CC
:100C700009B31A498988C8B21949098801F40041A1
:100C8000C9B91749098801F4804161B10A2803D024
:100C90000021134A118020E01149098841F40041E4
:100CA0000F4A118019E00D2806D10D49098841F439
:100CB00080410B4A118010E009490988C1F30D01F8
:100CC000084A505406490988491C054A11801146B2
:100CD0000988C72901DD00211180704700100140FB
:100CE000080000200C000020014600BF70470000F3
:100CF0004FF0E021096921F004014FF0E022116179
:100D0000C21700EB5272C2F3C702074B1A701946A2
:100D1000097801EB4102C2EBC1114FF6FF7202EA02
:100D2000C101024A1180704700000020020000202B
:100D300070B504464FF4077094FBF0F0C6B24FF460
:100D4000077094FBF0F100FB114085B205E04FF411
:100D5000077000F009F8701EC6B2002EF7D115B169
:100D6000284600F001F870BD01460D4A12884A433A
:100D70004FF0E0235A6100229A6101221A6100BFFC
:100D80004FF0E022106900F001021AB100F4803245
:100D9000002AF5D000224FF0E0231A619A617047D3
:100DA0000200002000BF054A128802F04002002A1B
:100DB000F9D0C2B2014B9A80704700000010014088
:100DC000002500240723022208214FF4A870FFF712
:100DD00083FEA820FFF78CFF4FF4E131542000F090
:100DE00041F8FFF7E9FBFFF77FFBFFF7F1FC21E09C
:100DF0001148006820B90DB9012000E00020054627
:100E000029460EA0FFF738FA214610A0FFF734FA62
:100E100004F19700FFF7FEFB012D0BD1052C03DA3F
:100E200004F19700FFF7B0FB872C03DD04F1970076
:100E3000FFF776FBDCE700001002424242454550D6
:100E40005F454E203D2025640A0000005068617314
:100E50006520446966666572656E6365203D202580
:100E6000640A0000F0B52DED028B83B005460E46F6
:100E7000384905FB01F000EE100AF8EE400A300197
:100E800000EE100AB8EE400A80EE801AB0EE418AF9
:100E9000BCEEC80A10EE100A84B200EE104AB8EE9A
:100EA000400A38EE400AF3EE000A20EE200ABCEEBB
:100EB000C00A10EE107A4FF6FF7000EA0414E01931
:100EC00084B22548006840F00100234908602248A8
:100ED0001430006840F010001F49143108600120F0
:100EE000022100230A46CDE900104FF4C0611B48DF
:100EF000FFF7FEFB072209211848FFF7D9FB07225D
:100F00000A211648FFF7D4FB15480481808920F494
:100F10000040134988810846808940F00800888194
:100F20000846808940F0040088810846808940F0A6
:100F3000200088810223252203210846FFF7DEFCDA
:100F40000748808940F400500549888103B0BDEC12
:100F5000028BF0BD40420F003038024000000240DA
:100F6000001001404FF04070E1EE100A70470000A1
:100F7000900F0008000000200C000000C4010008D1
:100F80009C0F00080C0000202C050000E001000868
:0C0F900000000000000000000000000055
:040000050800018965
:00000001FF
