:020000040800F2
:1000000048050020410200084F0200085102000884
:1000100053020008550200085702000800000000C3
:10002000000000000000000000000000590200086D
:100030005B020008000000005D0200085F0200088B
:100040006102000861020008610200086102000804
:1000500061020008610200086102000861020008F4
:1000600061020008610200086102000861020008E4
:1000700061020008610200086102000861020008D4
:1000800061020008610200086102000861020008C4
:1000900061020008610200086102000861020008B4
:1000A00061020008610200086102000861020008A4
:1000B000CD0F00086102000861020008610200081B
:1000C0006102000861020008610200086102000884
:1000D000610200088912000861020008610200083C
:1000E0006102000861020008610200086102000864
:1000F0006102000861020008610200086102000854
:100100006102000861020008851100086102000810
:100110006102000861020008610200086102000833
:100120006102000861020008610200086102000823
:100130006102000861020008610200086102000813
:100140006102000861020008610200086102000803
:1001500061020008610200086102000861020008F3
:1001600061020008610200086102000861020008E3
:1001700061020008610200086102000861020008D3
:10018000610200086102000800F002F800F049F87E
:100190000AA090E8000C82448344AAF10107DA45E2
:1001A00001D100F03EF8AFF2090EBAE80F0013F0EB
:1001B000010F18BFFB1A43F0010318475815000040
:1001C00078150000103A24BF78C878C1FAD85207D1
:1001D00024BF30C830C144BF04680C6070470000C1
:1001E0000023002400250026103A28BF78C1FBD840
:1001F000520728BF30C148BF0B60704703681B0A15
:1002000028BF41F08001642900F06E80E42900F0ED
:10021000A780002070471FB501F076FA1FBD10B50A
:1002200010BD00F07FFA1146FFF7F5FF01F0D8F896
:1002300000F09DFA03B4FFF7F2FF03BC01F064F88D
:100240000B48016841F4700101600A480047FEE76D
:10025000FEE7FEE7FEE7FEE7FEE7FEE7FEE7FEE776
:10026000FEE7000004480549034A054B70470000BB
:1002700088ED00E0890100084801002048050020C1
:1002800048010020704710B54C1084EA530404D58F
:100290004042C1F1000138BF491E1B4204D5524201
:1002A000C3F1000338BF5B1E00F0F8F814F0804F74
:1002B00004D04042C1F1000138BF491E14F0004F84
:1002C00004D05242C3F1000338BF5B1E10BD0000D2
:1002D0000FB4044910B503AA029800F0F5F910BC58
:1002E0005DF814FB040000202DE9F04106460024CF
:1002F00010687529314616A510D0AFF3008000288C
:1003000002DA404213A507E031688A0701D512A539
:1003100002E0490704D511A5012401E0AFF30080F4
:1003200000210A2206F1240709E0B0FBF2FCB0FB31
:10033000F2F302FB1C00303078541846491C0028A8
:10034000F3D123462A463046BDE8F04100F062B9B9
:10035000000000002D0000002B0000002000000025
:100360002DE9F0418046D21D22F007020025D2E996
:100370000002F52915A614D0011E72F1000106DA5B
:100380000023D0EB030063EB020211A608E0D8F8CB
:1003900000108B0701D50FA602E0490701D50EA674
:1003A00001251146002408F1240704E000F0EDF8CF
:1003B00030323A55641C50EA0102F7D12B463246DE
:1003C00021464046BDE8F04100F024B9000000009D
:1003D0002D0000002B000000200000002DE9F0415E
:1003E0000F460546002028622846E968884770B312
:1003F000252805D0D5E901219047286A401CF2E75D
:10040000E9682846002688476C2804460AD0682CEC
:1004100008D04C2C35D06A2C31D0742C31D07A2CA9
:100420002FD016E0E968064628468847B0420446C1
:1004300008D16C2E23D04FF480662846E96888479F
:10044000044606E06C2E03D04FF4807601E01EE0F7
:100450004026E4B1A4F14100192802D8203446F422
:1004600000663A46214628462E60FFF7C7FE60B177
:10047000012808D0FF1D27F007070837B4E78026BA
:10048000DBE70026D9E73F1DAEE72046B2E7286A42
:10049000BDE8F081704770477047704753EA020C1F
:1004A00000F069802DE9F04B4FF00006002B1FBFD4
:1004B000B3FA83F503FA05F424FA05F65E4012BF99
:1004C0001643B2FA82F502FA05F4C5F120051EBF03
:1004D00022FA05FC44EA0C04203556EA044C4FEAA3
:1004E000144418BF641C4FF000084FF000099042FC
:1004F00071EB030C39D3002919BFB1FA81F701FA66
:1005000007F6B0FA80F700FA07F6C7F120071EBF1A
:1005100020FA07FC46EA0C062037B6FBF4FCA7EBF2
:100520000507103F07F01F0BCBF120060CFA0BFB61
:100530002CFA06F644BFB3460026202FA4BF5E4621
:100540004FF0000B5BEA060C08BF4FF0010B19EBF4
:100550000B09ABFB027C48EB0608C01B06FB02CC78
:100560000BFB03CC71EB0C01C1E70B460246414685
:100570004846BDE8F08B13B54FF000004FF0000186
:10058000AFF30080BDE81C40704730B5B0F10A02FF
:100590004FEA900E71F100034EEA817EB0EB0E003F
:1005A00061EB91014FEA101E4EEA017E10EB0E0046
:1005B00041EB11114FEA102E4EEA016E10EB0E00C6
:1005C00041EB11214FEA104E4EEA014E10EB0E00A6
:1005D00041EB1141401841F100014FEAD00040EADF
:1005E00041704FEAD10110EB80054FEA810444EAE3
:1005F000907444EB01046D1944EB0404521BA341B5
:100600004FF0000348BF0A3200D530BD401C41F115
:10061000000130BD2DE9F0470D469946924604464B
:1006200000F124080168880604D5E06921F0100172
:10063000216000E00120A84201DD471B00E0002707
:10064000A1697A1902EB0900081AA0612078C00696
:1006500002D42046AFF30080002608E0D4E901214F
:100660001AF806009047206A401C761C20624E450E
:10067000F4DB2078C0060AD52046AFF3008006E000
:10068000D4E9012130209047206A401C2062381EA6
:10069000A7F10107F4DC07E0D4E9012118F805000F
:1006A0009047206A401C2062281EA5F10105F3DC5A
:1006B0002046AFF300802078000602D50220BDE876
:1006C000F0870120FBE70000074B70B50D467B4427
:1006D00000F011F80446284600F020F810B14FF061
:1006E000FF3070BD204670BDF30C000001694A1C4C
:1006F00002610878704700B58FB0CDE90131002163
:10070000059105497944CDE9031011466846FFF784
:1007100065FE0FB000BD0000E5FFFFFF007B00F0AD
:1007200080007047754600F029F8AE46050069461E
:10073000534620F00700854618B020B5FFF792FD1C
:10074000BDE820404FF000064FF000074FF00008D2
:100750004FF0000B21F00701AC46ACE8C009ACE853
:10076000C009ACE8C009ACE8C0098D467047044632
:10077000AFF300802046FFF75DFD000000487047A2
:10078000E80000201CB50A48006840F02000084935
:1007900008600120032100230246CDE9001040211A
:1007A000044800F003F90120034908601CBD000063
:1007B00030380240001402409882424210B504468C
:1007C00010A0FFF785FD0020154908602146C820CC
:1007D00000F04CFD01201349C1F898022146C820C1
:1007E00000F044FD00200E4908602146C82000F0BA
:1007F0003DFD01200B49C1F898022146C82000F0B8
:1008000035FD10BD426565702068696768206672B5
:10081000657175656E637920626C696E6B2100008D
:10082000988242420080424210B504460AA0FFF777
:100830004FFD00200F49086021464FF4C87000F0BA
:1008400015FD01200C49C1F8980221464FF4C870EB
:1008500000F00CFD10BD000042656570206C6F77E4
:10086000206672657175656E637920626C696E6B66
:100870002100000098824242008042421CB511488B
:10088000006840F020000F4908600846006840F00A
:10089000100008600120032100230246CDE900106A
:1008A0004FF4FF41084800F081F8012003210023A4
:1008B0000246CDE900104FF46041044800F076F89C
:1008C0001CBD0000303802400014024000100240FD
:1008D0002DE9F04104460A2094FBF0F000EB800083
:1008E000A4EB4005642094FBF0F000EBC00101EBA9
:1008F0000010A4EB80000A2190FBF1F6642094FB29
:10090000F0F701201749086000201749C1F8B80224
:10091000144908310860284600F0B2F9052000F0BB
:1009200017FD00200F4908600120091D0860002004
:100930000D49C1F8BC02304600F0A2F9052000F0D4
:1009400007FD002007490860091D08600120091DF6
:100950000860384600F094F9052000F0F9FCBDE885
:10096000F0810000B40242420000424230B5CC1097
:1009700000F1200353F824304C07E50E0F24AC405F
:10098000A343CD1000F1200444F82530CC1000F131
:10099000200353F824304C07E40E02FA04F42343F6
:1009A000CD1000F1200444F8253030BD2DE9F0478A
:1009B0000C46DDE90867002100258C4600BF60E099
:1009C0004FF0010808FA01F504EA050CAC4557D1CF
:1009D000D0F800804FEA410A4FF0030909FA0AF9FA
:1009E00028EA0908C0F80080D0F800804FEA4109E1
:1009F00002FA09F948EA0908C0F80080012A01D082
:100A0000022A27D1D0F808804FEA410A4FF00309A3
:100A100009FA0AF928EA0908C0F80880D0F808801D
:100A20004FEA410906FA09F948EA0908C0F80880BE
:100A3000D0F804904FF0010808FA01F829EA0809F3
:100A4000C0F80490D0F8048003FA01F948EA0908D4
:100A5000C0F80480D0F80C804FEA410A4FF0030937
:100A600009FA0AF928EA0908C0F80C80D0F80C80C5
:100A70004FEA410907FA09F948EA0908C0F80C8069
:100A8000491C10299CD3BDE8F08700001CB508481C
:100A9000006840F0100006490860012000210B4664
:100AA0000A46CDE9001018210248FFF77FFF1CBD60
:100AB00030380240001002402DE9F04106ACF0CC85
:100AC000012806D14FF0000CDFF8E880C8F8B8C262
:100AD00005E04FF0010CDFF8DC80C8F8B8C201294E
:100AE00006D14FF0000CDFF8CC80C8F8B4C205E0A6
:100AF0004FF0010CDFF8BC80C8F8B4C2012A06D15F
:100B00004FF0000CDFF8AC80C8F8B0C205E04FF041
:100B1000010CDFF8A080C8F8B0C2012B06D14FF05D
:100B2000000CDFF89080C8F8ACC205E04FF0010C73
:100B3000DFF88080C8F8ACC2012C06D14FF0000C61
:100B4000DFF87080C8F8A8C205E04FF0010CDFF8AC
:100B50006480C8F8A8C2012D06D14FF0000CDFF860
:100B60005480C8F8A4C205E04FF0010CDFF84480BF
:100B7000C8F8A4C2012E06D14FF0000CDFF8348073
:100B8000C8F8A0C205E04FF0010CDFF82880C8F8D3
:100B9000A0C2012F06D14FF0000CDFF81880C8F872
:100BA0009CC205E04FF0010CDFF80880C8F89CC239
:100BB000BDE8F081008042422DE9F04107468846B9
:100BC00014461D46284600F033F8C5F1040007FA24
:100BD00000F60F20284100EA0800064306F00F0641
:100BE000E21704EBD2625211920002F1E022D2F835
:100BF00000212146E31704EBD3635B11A4EB431CF4
:100C0000012303FA0CF31A432046E31704EBD363E2
:100C10005B119B0003F1E023C3F800210348005D52
:100C200040EA061001490855BDE8F08100E400E003
:100C30000146072323EA01021202054B18684FF60A
:100C4000FF031840034B18431043014B18607047D3
:100C50000CED00E00000FA054A0A52020243014B83
:100C60001A60704708ED00E070B504460D4629464D
:100C7000204600F057F92946204600F01FFA70BDC3
:100C80001FB504460A2C01DA002C0CDA00200121E1
:100C9000009101910B460246CDE902100146012068
:100CA000FFF70AFF1FBD0A2C7ED2DFE804F0051112
:100CB0001C28343F4C596571002001220092CDE977
:100CC00001201346114603901046FFF7F5FE6BE036
:100CD00000200090019002900346012211460390EB
:100CE000FFF7EAFE60E000200121CDE900100B468D
:100CF0000246CDE902100846FFF7DEFE54E0002070
:100D000001210090CDE901010B460A4603900846F7
:100D1000FFF7D2FE48E000200121CDE900010346A3
:100D20000A46CDE90210FFF7C7FE3DE00020012191
:100D3000CDE900010B460A46CDE90210014601202B
:100D4000FFF7BAFE30E000200121009101910B462F
:100D50000A46CDE9021001460120FFF7ADFE23E06F
:100D6000002000900190029003460122114603905A
:100D70001046FFF7A1FE17E000200121009101912C
:100D80000B460A46CDE902100846FFF795FE0BE038
:100D900000200121CDE900010B460A46CDE90210F1
:100DA0000846FFF789FE00BF00BF00BF7AE70000DA
:100DB000F0B504460D4616461F461448006840F03C
:100DC00001001249086000201049083108600F48EE
:100DD00000680F4908400D4908600E48091D086069
:100DE000081F006820F48020091F086000200749C0
:100DF0000C3108603B4632462946204600F00CF88C
:100E000000210846FFF728FFF0BD0000003802402F
:100E1000FFFFF6FE10300024F0B504460D46002119
:100E200000203D4E366846F480363B4F3E6001E080
:100E30004E1CB1B2384E366806F400361EB941F683
:100E4000FF76B142F4DB41F6FF76B14201D10120D9
:100E500060E0314E4036366846F080562E4F4037BF
:100E60003E602E4E366846F440462C4F3E602A4E79
:100E70000836366846F41446274F08373E60264E3B
:100E8000366826F08076244F3E6045EA84160127B6
:100E9000C7EB520746EA074646EA036646F4800671
:100EA0001D4F3F1D3E603E1F366846F080763F1F57
:100EB0003E6000BF184E366806F00076002EF9D06E
:100EC000174E366846F48076154F3E603E463668CB
:100ED00046F400763E603E46366846F480663E60E4
:100EE0003E46366846F005063E600B4E08363668CC
:100EF00026F00306084F08373E603E46366846F047
:100F000002063E6000BF044E0836366806F00C0646
:100F1000082EF8D1F0BD00000038024000700040FB
:100F2000003C02407CB504460D462648006840F06F
:100F300001002449086023481038006840F001008F
:100F40002049103908600220032100230246CDE920
:100F5000001020211C48FFF729FD012205211A4815
:100F6000FFF704FD4FF08040C4620585008B40F020
:100F700001004FF0804108830846008B0883084633
:100F8000008B08830846008C08840846008C40F0DB
:100F900001000884012088828007808940F00200D7
:100FA00088810846808940F00100888108460088D1
:100FB00040F00100088002231C2200211846FFF7A0
:100FC000FBFD7CBD40380240000002404FF08041F4
:100FD000088A3649097801F08001002960D100F0C3
:100FE0000101D1B13149097801F04001A9B12F497E
:100FF000097801F03F013F290AD12C49097841F0D5
:1010000080012A4A11704FF0FF31294A116004E033
:1010100026490978491C254A117000F00201E9B3FC
:101020002249097801F0400199B14FF08041496BA4
:101030001F4A11601D49097841F080011B4A117057
:101040004FF08041098C21F002014FF08042118461
:1010500026E000214FF08042516216490968164A85
:1010600011600021114A1170114A11600F4909786D
:1010700041F040010D4A11704FF08041098821F084
:1010800001014FF0804211801146098C41F00201AC
:1010900011841146098841F0010100E000E011804F
:1010A00000214FF08042118270470000180000209C
:1010B0001C000020340C0040140000207CB50446C5
:1010C0000D462D48006840F008002B4908602A486A
:1010D0001038006840F001002749103908600220EC
:1010E000032100230246CDE9001001212348FFF728
:1010F0005DFC022200212148FFF738FC20480460F3
:10110000001F05801E481438008840F001001C496B
:10111000143908800846008808800846008808803E
:1011200017480C38008816490C3908800846008892
:1011300040F001000880012011491839088010484A
:101140002038008840F002000D4920390880084608
:10115000008840F00100088009482C38008840F0E1
:10116000010007492C390880022332220021184649
:10117000FFF722FD7CBD0000403802400000024025
:101180002C0C0040364908883649097801F0800166
:10119000002961D100F00101D1B13249097801F093
:1011A0004001A9B12F49097801F03F013F290AD137
:1011B0002C49097841F080012A4A11704FF0FF3123
:1011C000294A116004E027490978491C254A117011
:1011D00000F00201F1B32349097801F0400199B10F
:1011E0001F4924310968204A11601E49097841F0DD
:1011F00080011C4A11701A491031098821F002013E
:10120000174A1032118027E00021154A143211606C
:10121000144A1170144A11601249097841F04001D2
:10122000104A11700E491039098821F001010C4A49
:10123000103A11800A491031098841F00201084A28
:101240001032118006491039098841F00101044A21
:10125000103A00E000E011800021014A118070473F
:10126000100C00400C0000201000002070B5044657
:101270000D460F2094FBF0F403E02846FFF728FB0F
:10128000641E002CF9DC70BD1C49098801F02001A6
:1012900009B31A498988C8B21949098801F400417B
:1012A000C9B91749098801F4804161B10A2803D0FE
:1012B0000021134A118020E01149098841F40041BE
:1012C0000F4A118019E00D2806D10D49098841F413
:1012D00080410B4A118010E009490988C1F30D01D2
:1012E000084A505406490988491C054A118011468C
:1012F0000988C72901DD00211180704700100140D5
:101300000800002020000020014600BF70470000B8
:101310004FF0E021096921F004014FF0E022116152
:10132000C21700EB5272C2F3C702074B1A7019467C
:10133000097801EB4102C2EBC1114FF6FF7202EADC
:10134000C101024A11807047000000200200002005
:1013500070B504464FF4077094FBF0F0C6B24FF43A
:10136000077094FBF0F100FB114085B205E04FF4EB
:10137000077000F009F8701EC6B2002EF7D115B143
:10138000284600F001F870BD01460D4A12884A4314
:101390004FF0E0235A6100229A6101221A6100BFD6
:1013A0004FF0E022106900F001021AB100F480321F
:1013B000002AF5D000224FF0E0231A619A617047AD
:1013C0000200002000BF054A128802F04002002AF5
:1013D000F9D0C2B2014B9A80704700000010014062
:1013E0001FB500200390029000BF00BF002400BF83
:1013F0000723022208214FF4A870FFF7D9FCA82088
:10140000FFF786FF4FF4E131542000F0FDF8FFF7BD
:1014100035FAFFF7B7F9FFF739FB5321601EFFF7E5
:1014200023FCA2E040F29A211020FFF71FFF4F4853
:10143000006810B90120039001E0002003904B48A0
:10144000001F006810B90120029001E00020029006
:1014500047A00399FEF73CFF21461020FFF706FF47
:1014600047A00299FEF734FF21461020FFF7FEFE49
:101470004948007800F08000002876D0464800787F
:1014800000F03F00C71706464FF0FF3100203246FC
:10149000A2FB01CE07FB01E106FB001766463F48B1
:1014A0000068361847F10007022100203246A2FBEF
:1014B00001CE07FB01E106FB0017664638484FF0F6
:1014C0000009D0F8008032463B4636A0FEF700FF08
:1014D00032463B463A480021FEF7D5FE82468B460F
:1014E0004FF4B4710022A8FB010309FB013108FB92
:1014F00002110246CDE9002132463B460098FEF734
:10150000C2FE04460D4652465B462EA0FEF7E0FEA4
:1015100022462B4634A0FEF7DBFE0298C0B90398A2
:1015200001280FD1611F75F1000002DA2046FFF794
:101530007BF90020D4F18701A84111DA2046FFF79A
:101540003DF90DE021464FF44870FFF78FFE07E0AC
:101550004FF46170BAEB00014FF44870FFF786FE5C
:101560000020284908700C4908705BE710024242CD
:10157000426570705F456E203D20256400000000CC
:101580002020204672655F6F725F5068617365202E
:101590003D2025640D0A0000180000201C000020DA
:1015A0001400002054206F662074686520736967FA
:1015B0006E616C3A256C6C642075730D0000000040
:1015C00040420F003D3D4672657175656E6379203E
:1015D0006F6620746865207369676E616C3A256C6C
:1015E0006C6420487A0D00003D3D506861736520B1
:1015F000446966666572656E6365203D20256C6C86
:10160000640D0A000C000020F0B52DED028B83B0B4
:1016100005460E46384905FB01F000EE100AF8EECB
:10162000400A300100EE100AB8EE400A80EE801A3F
:10163000B0EE418ABCEEC80A10EE100A84B200EE89
:10164000104AB8EE400A38EE400AF3EE000A20EEE7
:10165000200ABCEEC00A10EE107A4FF6FF7000EAC6
:101660000414E01984B22548006840F001002349C1
:10167000086022481430006840F010001F491431FF
:1016800008600120022100230A46CDE900104FF432
:10169000C0611B48FFF78AF9072209211848FFF7A4
:1016A00065F907220A211648FFF760F915480481F9
:1016B000808920F40040134988810846808940F0E1
:1016C000080088810846808940F004008881084627
:1016D000808940F0200088810223252203210846CA
:1016E000FFF76AFA0748808940F40050054988816D
:1016F00003B0BDEC028BF0BD40420F003038024019
:1017000000000240001001404FF04070E1EE100A6E
:10171000704700003417000800000020200000007F
:10172000C40100085417000820000020280500000C
:10173000E0010008000000000000000000000000C0
:101740000000000000000000000000000000000099
:041750000000000095
:040000050800018965
:00000001FF
